{
  "_format": "hh3-artifact-1",
  "contractName": "StealthMetaAddressRegistry",
  "sourceName": "contracts/StealthMetaAddressRegistry.sol",
  "abi": [
    {
      "inputs": [],
      "stateMutability": "nonpayable",
      "type": "constructor"
    },
    {
      "inputs": [],
      "name": "StealthMetaAddressRegistry__InvalidSignature",
      "type": "error"
    },
    {
      "anonymous": false,
      "inputs": [
        {
          "indexed": true,
          "internalType": "address",
          "name": "registrant",
          "type": "address"
        },
        {
          "indexed": false,
          "internalType": "uint256",
          "name": "newNonce",
          "type": "uint256"
        }
      ],
      "name": "NonceIncremented",
      "type": "event"
    },
    {
      "anonymous": false,
      "inputs": [
        {
          "indexed": true,
          "internalType": "address",
          "name": "registrant",
          "type": "address"
        },
        {
          "indexed": true,
          "internalType": "uint256",
          "name": "schemeId",
          "type": "uint256"
        },
        {
          "indexed": false,
          "internalType": "bytes",
          "name": "stealthMetaAddress",
          "type": "bytes"
        }
      ],
      "name": "StealthMetaAddressSet",
      "type": "event"
    },
    {
      "inputs": [],
      "name": "DOMAIN_SEPARATOR",
      "outputs": [
        {
          "internalType": "bytes32",
          "name": "",
          "type": "bytes32"
        }
      ],
      "stateMutability": "view",
      "type": "function"
    },
    {
      "inputs": [],
      "name": "ERC6538REGISTRY_ENTRY_TYPE_HASH",
      "outputs": [
        {
          "internalType": "bytes32",
          "name": "",
          "type": "bytes32"
        }
      ],
      "stateMutability": "view",
      "type": "function"
    },
    {
      "inputs": [],
      "name": "incrementNonce",
      "outputs": [],
      "stateMutability": "nonpayable",
      "type": "function"
    },
    {
      "inputs": [
        {
          "internalType": "address",
          "name": "registrant",
          "type": "address"
        }
      ],
      "name": "nonceOf",
      "outputs": [
        {
          "internalType": "uint256",
          "name": "",
          "type": "uint256"
        }
      ],
      "stateMutability": "view",
      "type": "function"
    },
    {
      "inputs": [
        {
          "internalType": "uint256",
          "name": "schemeId",
          "type": "uint256"
        },
        {
          "internalType": "bytes",
          "name": "stealthMetaAddress",
          "type": "bytes"
        }
      ],
      "name": "register",
      "outputs": [],
      "stateMutability": "nonpayable",
      "type": "function"
    },
    {
      "inputs": [
        {
          "internalType": "uint256",
          "name": "schemeId",
          "type": "uint256"
        },
        {
          "internalType": "bytes",
          "name": "stealthMetaAddress",
          "type": "bytes"
        }
      ],
      "name": "registerKeys",
      "outputs": [],
      "stateMutability": "nonpayable",
      "type": "function"
    },
    {
      "inputs": [
        {
          "internalType": "address",
          "name": "registrant",
          "type": "address"
        },
        {
          "internalType": "uint256",
          "name": "schemeId",
          "type": "uint256"
        },
        {
          "internalType": "bytes",
          "name": "signature",
          "type": "bytes"
        },
        {
          "internalType": "bytes",
          "name": "stealthMetaAddress",
          "type": "bytes"
        }
      ],
      "name": "registerKeysOnBehalf",
      "outputs": [],
      "stateMutability": "nonpayable",
      "type": "function"
    },
    {
      "inputs": [
        {
          "internalType": "address",
          "name": "registrant",
          "type": "address"
        },
        {
          "internalType": "uint256",
          "name": "schemeId",
          "type": "uint256"
        }
      ],
      "name": "stealthMetaAddressOf",
      "outputs": [
        {
          "internalType": "bytes",
          "name": "",
          "type": "bytes"
        }
      ],
      "stateMutability": "view",
      "type": "function"
    }
  ],
  "bytecode": "0x60c060405234801561000f575f5ffd5b50466080526100bb604080517f8b73c3c69bb8fe3d512ecc4cf759cc79239f7b179b0ffacaa9a75d522b39400f60208201527f6124ff9f656d31cbb8918f3698282fe3b3527cc4dede357f0fbf535d197bbb7f918101919091527fe6bbd6277e1bf288eed5e8d1780f9a50b239e86b153736bceebccf4ea79d90b360608201524660808201523060a08201525f9060c00160405160208183030381529060405280519060200120905090565b60a05260805160a051610a5d6100df5f395f61027d01525f6101a90152610a5d5ff3fe608060405234801561000f575f5ffd5b5060043610610085575f3560e01c8063765718d711610058578063765718d7146100895780637aa8b5ad146100d4578063ed2a2d64146100f4578063fe04b10614610113575f5ffd5b8063042c7aa3146100895780633644e5151461009e578063428d3d0b146100b9578063627cdcb9146100cc575b5f5ffd5b61009c610097366004610669565b61013a565b005b6100a66101a6565b6040519081526020015b60405180910390f35b61009c6100c73660046106e0565b61029f565b61009c610538565b6100e76100e23660046107dd565b610585565b6040516100b09190610833565b6100a661010236600461084c565b60016020525f908152604090205481565b6100a67fad167d3025c204a322703b7e9c41f6179d0d174570f484391f50080b960d41d681565b335f90815260208181526040808320868452909152902061015c8284836108e9565b5082336001600160a01b03167f4e739a47dfa4fd3cfa92f8fe760cebe125565927e5c422cb28e7aa388a067af984846040516101999291906109a3565b60405180910390a3505050565b5f7f0000000000000000000000000000000000000000000000000000000000000000461461027a57610275604080517f8b73c3c69bb8fe3d512ecc4cf759cc79239f7b179b0ffacaa9a75d522b39400f60208201527f6124ff9f656d31cbb8918f3698282fe3b3527cc4dede357f0fbf535d197bbb7f918101919091527fe6bbd6277e1bf288eed5e8d1780f9a50b239e86b153736bceebccf4ea79d90b360608201524660808201523060a08201525f9060c00160405160208183030381529060405280519060200120905090565b905090565b507f000000000000000000000000000000000000000000000000000000000000000090565b5f5f6102a96101a6565b7fad167d3025c204a322703b7e9c41f6179d0d174570f484391f50080b960d41d68786866040516102db9291906109d1565b604080519182900382206001600160a01b038d165f90815260016020818152939091208054918201905561032b959493919290910193845260208401929092526040830152606082015260800190565b6040516020818303038152906040528051906020012060405160200161036892919061190160f01b81526002810192909252602282015260420190565b60405160208183030381529060405280519060200120915084516041036103f6576020858101516040808801516060808a015183515f808252968101808652899052951a928501839052840183905260808401819052919260019060a0016020604051602081039080840390855afa1580156103e6573d5f5f3e3d5ffd5b5050506020604051035193505050505b6001600160a01b038116158061041e5750866001600160a01b0316816001600160a01b031614155b80156104a15750604051630b135d3f60e11b808252906001600160a01b03891690631626ba7e906104559086908a906004016109e0565b602060405180830381865afa158015610470573d5f5f3e3d5ffd5b505050506040513d601f19601f820116820180604052508101906104949190610a00565b6001600160e01b03191614155b156104bf57604051636e9ba18d60e11b815260040160405180910390fd5b6001600160a01b0387165f9081526020818152604080832089845290915290206104ea8486836108e9565b5085876001600160a01b03167f4e739a47dfa4fd3cfa92f8fe760cebe125565927e5c422cb28e7aa388a067af986866040516105279291906109a3565b60405180910390a350505050505050565b335f8181526001602081815260409283902080549092019182905591519081527fa82a649bbd060c9099cd7b7326e2b0dc9e9af0836480e0f849dc9eaa79710b3b910160405180910390a2565b5f602081815292815260408082209093529081522080546105a590610865565b80601f01602080910402602001604051908101604052809291908181526020018280546105d190610865565b801561061c5780601f106105f35761010080835404028352916020019161061c565b820191905f5260205f20905b8154815290600101906020018083116105ff57829003601f168201915b505050505081565b5f5f83601f840112610634575f5ffd5b50813567ffffffffffffffff81111561064b575f5ffd5b602083019150836020828501011115610662575f5ffd5b9250929050565b5f5f5f6040848603121561067b575f5ffd5b83359250602084013567ffffffffffffffff811115610698575f5ffd5b6106a486828701610624565b9497909650939450505050565b80356001600160a01b03811681146106c7575f5ffd5b919050565b634e487b7160e01b5f52604160045260245ffd5b5f5f5f5f5f608086880312156106f4575f5ffd5b6106fd866106b1565b945060208601359350604086013567ffffffffffffffff81111561071f575f5ffd5b8601601f8101881361072f575f5ffd5b803567ffffffffffffffff811115610749576107496106cc565b604051601f8201601f19908116603f0116810167ffffffffffffffff81118282101715610778576107786106cc565b6040528181528282016020018a101561078f575f5ffd5b816020840160208301375f60208383010152809550505050606086013567ffffffffffffffff8111156107c0575f5ffd5b6107cc88828901610624565b969995985093965092949392505050565b5f5f604083850312156107ee575f5ffd5b6107f7836106b1565b946020939093013593505050565b5f81518084528060208401602086015e5f602082860101526020601f19601f83011685010191505092915050565b602081525f6108456020830184610805565b9392505050565b5f6020828403121561085c575f5ffd5b610845826106b1565b600181811c9082168061087957607f821691505b60208210810361089757634e487b7160e01b5f52602260045260245ffd5b50919050565b601f8211156108e457805f5260205f20601f840160051c810160208510156108c25750805b601f840160051c820191505b818110156108e1575f81556001016108ce565b50505b505050565b67ffffffffffffffff831115610901576109016106cc565b6109158361090f8354610865565b8361089d565b5f601f841160018114610946575f851561092f5750838201355b5f19600387901b1c1916600186901b1783556108e1565b5f83815260208120601f198716915b828110156109755786850135825560209485019460019092019101610955565b5086821015610991575f1960f88860031b161c19848701351681555b505060018560011b0183555050505050565b60208152816020820152818360408301375f818301604090810191909152601f909201601f19160101919050565b818382375f9101908152919050565b828152604060208201525f6109f86040830184610805565b949350505050565b5f60208284031215610a10575f5ffd5b81516001600160e01b031981168114610845575f5ffdfea2646970667358221220363547bd576870727e9b9837cfc7f8d9028921b3010cb8398d20894e59cd892964736f6c634300081c0033",
  "linkReferences": {},
  "deployedLinkReferences": {},
  "immutableReferences": {
    "25": [
      {
        "length": 32,
        "start": 425
      }
    ],
    "27": [
      {
        "length": 32,
        "start": 637
      }
    ]
  },
  "inputSourceName": "project/contracts/StealthMetaAddressRegistry.sol",
  "buildInfoId": "solc-0_8_28-e66f60c80c90132a029d40facb1d3cfc04d9bd84"
}