{
  "_format": "hh3-artifact-1",
  "contractName": "StealthAddressAnnouncer",
  "sourceName": "contracts/StealthAddressAnnouncer.sol",
  "abi": [
    {
      "anonymous": false,
      "inputs": [
        {
          "indexed": true,
          "internalType": "uint256",
          "name": "schemeId",
          "type": "uint256"
        },
        {
          "indexed": true,
          "internalType": "address",
          "name": "stealthAddress",
          "type": "address"
        },
        {
          "indexed": true,
          "internalType": "address",
          "name": "caller",
          "type": "address"
        },
        {
          "indexed": false,
          "internalType": "bytes",
          "name": "ephemeralPubKey",
          "type": "bytes"
        },
        {
          "indexed": false,
          "internalType": "bytes",
          "name": "metadata",
          "type": "bytes"
        }
      ],
      "name": "Announcement",
      "type": "event"
    },
    {
      "inputs": [
        {
          "internalType": "uint256",
          "name": "schemeId",
          "type": "uint256"
        },
        {
          "internalType": "address",
          "name": "stealthAddress",
          "type": "address"
        },
        {
          "internalType": "bytes",
          "name": "ephemeralPubKey",
          "type": "bytes"
        },
        {
          "internalType": "bytes",
          "name": "metadata",
          "type": "bytes"
        }
      ],
      "name": "announce",
      "outputs": [],
      "stateMutability": "nonpayable",
      "type": "function"
    }
  ],
  "bytecode": "0x6080604052348015600e575f5ffd5b506102068061001c5f395ff3fe608060405234801561000f575f5ffd5b5060043610610029575f3560e01c80634d1f95831461002d575b5f5ffd5b61004061003b3660046100e1565b610042565b005b336001600160a01b0316856001600160a01b0316877f5f0eab8057630ba7676c49b4f21a0231414e79474595be8e4c432fbf6bf0f4e78787878760405161008c949392919061019f565b60405180910390a4505050505050565b5f5f83601f8401126100ac575f5ffd5b50813567ffffffffffffffff8111156100c3575f5ffd5b6020830191508360208285010111156100da575f5ffd5b9250929050565b5f5f5f5f5f5f608087890312156100f6575f5ffd5b8635955060208701356001600160a01b0381168114610113575f5ffd5b9450604087013567ffffffffffffffff81111561012e575f5ffd5b61013a89828a0161009c565b909550935050606087013567ffffffffffffffff811115610159575f5ffd5b61016589828a0161009c565b979a9699509497509295939492505050565b81835281816020850137505f828201602090810191909152601f909101601f19169091010190565b604081525f6101b2604083018688610177565b82810360208401526101c5818587610177565b97965050505050505056fea26469706673582212203793567483f966b2724db301cadf3eed84136210ed12bc6c93d7b78ee35c4ad564736f6c634300081c0033",
  "linkReferences": {},
  "deployedLinkReferences": {},
  "immutableReferences": {},
  "inputSourceName": "project/contracts/StealthAddressAnnouncer.sol",
  "buildInfoId": "solc-0_8_28-f71fcb882b09b7262f8874d73cfe3577fb3e77e5"
}